:03000000020100FA
:1001000075985053877F758920C28EC28F753100D4
:10011000753200753300780079007A007C007D002C
:100120007E00758BFD758DFDD28EB8000B3098FD6D
:10013000E59912021B08C298B8010B3098FDE599A9
:1001400012021208C298B8020F3098FDE599120207
:100150000D8931790008C298B803093098FDE599F6
:10016000FA08C298B8040B3098FDE59912021B08F2
:10017000C298B8050B3098FDE59912021208C29892
:10018000B8060F3098FDE59912020D893279000802
:10019000C298B8072C3098FDE599BA2B0612023F99
:1001A0000201BBBA2D0612024E0201BBBA2A061288
:1001B000025D0201BBBA2F0312026E12022308C2B3
:1001C00098B80808C2998C993099FD08B80908C2F6
:1001D000998D993099FD08C2998E993099FDC299EF
:1001E00075990A3099FD75310075320075330078C4
:1001F0000079007A007C007D007E00C28EC28F757F
:100200008920758BFD758DFDD28E02012A943029CF
:10021000F922943075F00AA429F922943075F0641B
:10022000A4F922C0E0E53375F064842430FCE5F0E5
:1002300075F00A842430FDE5F02430FED0E022C0C1
:10024000D0C0E0E5312532F533D0E0D0D022C0D0A7
:10025000C0E0E5319532F533D0E0D0D022C0D0C037
:10026000E0E5318532F0A4F533D0E0D0D022C0D023
:0F027000C0E0E5318532F084F533D0E0D0D02204
:00000001FF
